{
  "abi": [
    {
      "inputs": [],
      "name": "hello",
      "outputs": [
        {
          "internalType": "string",
          "name": "",
          "type": "string"
        }
      ],
      "stateMutability": "pure",
      "type": "function"
    },
    {
      "inputs": [],
      "name": "number",
      "outputs": [
        {
          "internalType": "uint256",
          "name": "",
          "type": "uint256"
        }
      ],
      "stateMutability": "view",
      "type": "function"
    },
    {
      "inputs": [
        {
          "internalType": "uint256",
          "name": "_number",
          "type": "uint256"
        }
      ],
      "name": "setNumber",
      "outputs": [],
      "stateMutability": "nonpayable",
      "type": "function"
    }
  ],
  "bytecode": {
    "object": "0x608060405234801561001057600080fd5b50610149806100206000396000f3fe608060405234801561001057600080fd5b50600436106100415760003560e01c806319ff1d21146100465780633fb5c1cb146100805780638381f58a14610095575b600080fd5b604080518082018252600f81526e48656c6c6f2c20466f756e6472792160881b6020820152905161007791906100ac565b60405180910390f35b61009361008e3660046100fa565b600055565b005b61009e60005481565b604051908152602001610077565b600060208083528351808285015260005b818110156100d9578581018301518582016040015282016100bd565b506000604082860101526040601f19601f8301168501019250505092915050565b60006020828403121561010c57600080fd5b503591905056fea264697066735822122074154c2ee59b0c0636c27dd176f86cd17a56aac7561101384788200c5bc1576264736f6c63430008110033",
    "linkReferences": {}
  },
  "methodIdentifiers": {
    "hello()": "19ff1d21",
    "number()": "8381f58a",
    "setNumber(uint256)": "3fb5c1cb"
  },
  "id": 7
}